{
  "contractName": "Tinder",
  "abi": [
    {
      "anonymous": false,
      "inputs": [
        {
          "indexed": true,
          "internalType": "address",
          "name": "from",
          "type": "address"
        },
        {
          "indexed": true,
          "internalType": "address",
          "name": "to",
          "type": "address"
        }
      ],
      "name": "Matched",
      "type": "event"
    },
    {
      "anonymous": false,
      "inputs": [
        {
          "indexed": true,
          "internalType": "address",
          "name": "from",
          "type": "address"
        },
        {
          "indexed": true,
          "internalType": "address",
          "name": "to",
          "type": "address"
        },
        {
          "indexed": false,
          "internalType": "enum Tinder.SwipeStatus",
          "name": "status",
          "type": "uint8"
        }
      ],
      "name": "Swiped",
      "type": "event"
    },
    {
      "anonymous": false,
      "inputs": [
        {
          "indexed": true,
          "internalType": "address",
          "name": "from",
          "type": "address"
        },
        {
          "indexed": true,
          "internalType": "address",
          "name": "to",
          "type": "address"
        },
        {
          "indexed": false,
          "internalType": "string",
          "name": "content",
          "type": "string"
        }
      ],
      "name": "sendMessage",
      "type": "event"
    },
    {
      "inputs": [
        {
          "internalType": "uint256",
          "name": "_age",
          "type": "uint256"
        },
        {
          "internalType": "enum Tinder.Gender",
          "name": "_gender",
          "type": "uint8"
        },
        {
          "internalType": "string",
          "name": "_name",
          "type": "string"
        },
        {
          "internalType": "string",
          "name": "_city",
          "type": "string"
        },
        {
          "internalType": "string",
          "name": "_picUrl",
          "type": "string"
        }
      ],
      "name": "register",
      "outputs": [],
      "stateMutability": "nonpayable",
      "type": "function"
    },
    {
      "inputs": [
        {
          "internalType": "address",
          "name": "_userId",
          "type": "address"
        },
        {
          "internalType": "uint256",
          "name": "offset",
          "type": "uint256"
        },
        {
          "internalType": "uint256",
          "name": "limit",
          "type": "uint256"
        }
      ],
      "name": "getMatchableUsers",
      "outputs": [
        {
          "components": [
            {
              "internalType": "string",
              "name": "name",
              "type": "string"
            },
            {
              "internalType": "string",
              "name": "city",
              "type": "string"
            },
            {
              "internalType": "enum Tinder.Gender",
              "name": "gender",
              "type": "uint8"
            },
            {
              "internalType": "uint256",
              "name": "age",
              "type": "uint256"
            },
            {
              "internalType": "string",
              "name": "picUrl",
              "type": "string"
            }
          ],
          "internalType": "struct Tinder.Users[]",
          "name": "",
          "type": "tuple[]"
        }
      ],
      "stateMutability": "view",
      "type": "function",
      "constant": true
    },
    {
      "inputs": [
        {
          "internalType": "address",
          "name": "_userId",
          "type": "address"
        },
        {
          "internalType": "enum Tinder.SwipeStatus",
          "name": "_status",
          "type": "uint8"
        }
      ],
      "name": "swipe",
      "outputs": [],
      "stateMutability": "nonpayable",
      "type": "function"
    },
    {
      "inputs": [
        {
          "internalType": "address",
          "name": "_userId",
          "type": "address"
        },
        {
          "internalType": "string",
          "name": "_content",
          "type": "string"
        }
      ],
      "name": "message",
      "outputs": [],
      "stateMutability": "nonpayable",
      "type": "function"
    }
  ],
  "bytecode": "0x608060405234801561001057600080fd5b50612334806100206000396000f3fe608060405234801561001057600080fd5b506004361061004b5760003560e01c8062d99932146100505780633e03c4d0146100805780634fac1bb31461009c5780639ef53d13146100b8575b600080fd5b61006a60048036038101906100659190611631565b6100d4565b60405161007791906118e9565b60405180910390f35b61009a60048036038101906100959190611930565b6106fe565b005b6100b660048036038101906100b191906119d5565b610c1b565b005b6100d260048036038101906100cd9190611a5a565b610eb6565b005b60608360008060008373ffffffffffffffffffffffffffffffffffffffff1673ffffffffffffffffffffffffffffffffffffffff168152602001908152602001600020600301541161015b576040517f08c379a000000000000000000000000000000000000000000000000000000000815260040161015290611b93565b60405180910390fd5b3360008060008373ffffffffffffffffffffffffffffffffffffffff1673ffffffffffffffffffffffffffffffffffffffff16815260200190815260200160002060030154116101e0576040517f08c379a00000000000000000000000000000000000000000000000000000000081526004016101d790611b93565b60405180910390fd5b60008060008873ffffffffffffffffffffffffffffffffffffffff1673ffffffffffffffffffffffffffffffffffffffff1681526020019081526020016000209050600080600181111561023757610236611749565b5b8260020160009054906101000a900460ff16600181111561025b5761025a611749565b5b1461026757600161026a565b60005b60ff1690506000826001016040516020016102859190611cb2565b604051602081830303815290604052805190602001209050600060016000838152602001908152602001600020600084815260200190815260200160002090506000808a9050600083805490508b8d6102de9190611cf8565b116102f4578a8c6102ef9190611cf8565b6102fa565b83805490505b90506000828261030a9190611d4e565b67ffffffffffffffff81111561032357610322611d82565b5b60405190808252806020026020018201604052801561035c57816020015b6103496114af565b8152602001906001900390816103415790505b50905060008390505b828110156106e957600086828154811061038257610381611db1565b5b9060005260206000200160009054906101000a900473ffffffffffffffffffffffffffffffffffffffff169050600060028111156103c3576103c2611749565b5b600260003373ffffffffffffffffffffffffffffffffffffffff1673ffffffffffffffffffffffffffffffffffffffff16815260200190815260200160002060008373ffffffffffffffffffffffffffffffffffffffff1673ffffffffffffffffffffffffffffffffffffffff16815260200190815260200160002060009054906101000a900460ff16600281111561045f5761045e611749565b5b036106d5576000808273ffffffffffffffffffffffffffffffffffffffff1673ffffffffffffffffffffffffffffffffffffffff1681526020019081526020016000206040518060a00160405290816000820180546104bd90611be2565b80601f01602080910402602001604051908101604052809291908181526020018280546104e990611be2565b80156105365780601f1061050b57610100808354040283529160200191610536565b820191906000526020600020905b81548152906001019060200180831161051957829003601f168201915b5050505050815260200160018201805461054f90611be2565b80601f016020809104026020016040519081016040528092919081815260200182805461057b90611be2565b80156105c85780601f1061059d576101008083540402835291602001916105c8565b820191906000526020600020905b8154815290600101906020018083116105ab57829003601f168201915b505050505081526020016002820160009054906101000a900460ff1660018111156105f6576105f5611749565b5b600181111561060857610607611749565b5b81526020016003820154815260200160048201805461062690611be2565b80601f016020809104026020016040519081016040528092919081815260200182805461065290611be2565b801561069f5780601f106106745761010080835404028352916020019161069f565b820191906000526020600020905b81548152906001019060200180831161068257829003601f168201915b5050505050815250508387815181106106bb576106ba611db1565b5b602002602001018190525085806106d190611de0565b9650505b5080806106e190611de0565b915050610365565b50809a50505050505050505050509392505050565b8160008060008373ffffffffffffffffffffffffffffffffffffffff1673ffffffffffffffffffffffffffffffffffffffff1681526020019081526020016000206003015411610783576040517f08c379a000000000000000000000000000000000000000000000000000000000815260040161077a90611b93565b60405180910390fd5b3360008060008373ffffffffffffffffffffffffffffffffffffffff1673ffffffffffffffffffffffffffffffffffffffff1681526020019081526020016000206003015411610808576040517f08c379a00000000000000000000000000000000000000000000000000000000081526004016107ff90611b93565b60405180910390fd5b6000600281111561081c5761081b611749565b5b600260003373ffffffffffffffffffffffffffffffffffffffff1673ffffffffffffffffffffffffffffffffffffffff16815260200190815260200160002060008673ffffffffffffffffffffffffffffffffffffffff1673ffffffffffffffffffffffffffffffffffffffff16815260200190815260200160002060009054906101000a900460ff1660028111156108b8576108b7611749565b5b146108f8576040517f08c379a00000000000000000000000000000000000000000000000000000000081526004016108ef90611e74565b60405180910390fd5b82600260003373ffffffffffffffffffffffffffffffffffffffff1673ffffffffffffffffffffffffffffffffffffffff16815260200190815260200160002060008673ffffffffffffffffffffffffffffffffffffffff1673ffffffffffffffffffffffffffffffffffffffff16815260200190815260200160002060006101000a81548160ff0219169083600281111561099757610996611749565b5b0217905550600160028111156109b0576109af611749565b5b8360028111156109c3576109c2611749565b5b148015610a7d5750600160028111156109df576109de611749565b5b600260008673ffffffffffffffffffffffffffffffffffffffff1673ffffffffffffffffffffffffffffffffffffffff16815260200190815260200160002060003373ffffffffffffffffffffffffffffffffffffffff1673ffffffffffffffffffffffffffffffffffffffff16815260200190815260200160002060009054906101000a900460ff166002811115610a7b57610a7a611749565b5b145b15610add578373ffffffffffffffffffffffffffffffffffffffff163373ffffffffffffffffffffffffffffffffffffffff167fd14ed81663bee87b643b51c1f63fc86cb3b2bba9cc237cf6db5c3d5967a2695260405160405180910390a35b6000600360003373ffffffffffffffffffffffffffffffffffffffff1673ffffffffffffffffffffffffffffffffffffffff1681526020019081526020016000209050620151808160000154610b339190611cf8565b421115610b4e57428160000181905550606481600101819055505b6000816001015411610b95576040517f08c379a0000000000000000000000000000000000000000000000000000000008152600401610b8c90611ee0565b60405180910390fd5b806001016000815480929190610baa90611f00565b91905055508473ffffffffffffffffffffffffffffffffffffffff163373ffffffffffffffffffffffffffffffffffffffff167fe73e20c5441ba268ed326947e6ba00960753d9f4e0a9ce842a3b20fdae77ac5c86604051610c0c9190611f71565b60405180910390a35050505050565b8260008060008373ffffffffffffffffffffffffffffffffffffffff1673ffffffffffffffffffffffffffffffffffffffff1681526020019081526020016000206003015411610ca0576040517f08c379a0000000000000000000000000000000000000000000000000000000008152600401610c9790611b93565b60405180910390fd5b60016002811115610cb457610cb3611749565b5b600260003373ffffffffffffffffffffffffffffffffffffffff1673ffffffffffffffffffffffffffffffffffffffff16815260200190815260200160002060008673ffffffffffffffffffffffffffffffffffffffff1673ffffffffffffffffffffffffffffffffffffffff16815260200190815260200160002060009054906101000a900460ff166002811115610d5057610d4f611749565b5b148015610e0a575060016002811115610d6c57610d6b611749565b5b600260008673ffffffffffffffffffffffffffffffffffffffff1673ffffffffffffffffffffffffffffffffffffffff16815260200190815260200160002060003373ffffffffffffffffffffffffffffffffffffffff1673ffffffffffffffffffffffffffffffffffffffff16815260200190815260200160002060009054906101000a900460ff166002811115610e0857610e07611749565b5b145b610e49576040517f08c379a0000000000000000000000000000000000000000000000000000000008152600401610e4090611ffe565b60405180910390fd5b8373ffffffffffffffffffffffffffffffffffffffff163373ffffffffffffffffffffffffffffffffffffffff167fb88e318daf2d42713ce210b419bffdea4fff4079acc81d58aed9de9e170dc1f28585604051610ea892919061205a565b60405180910390a350505050565b60008060003373ffffffffffffffffffffffffffffffffffffffff1673ffffffffffffffffffffffffffffffffffffffff1681526020019081526020016000206003015414610f3a576040517f08c379a0000000000000000000000000000000000000000000000000000000008152600401610f31906120ca565b60405180910390fd5b60118811610f7d576040517f08c379a0000000000000000000000000000000000000000000000000000000008152600401610f7490612136565b60405180910390fd5b610fca86868080601f016020809104026020016040519081016040528093929190818152602001838380828437600081840152601f19601f8201169050808301925050505050505061149b565b611009576040517f08c379a0000000000000000000000000000000000000000000000000000000008152600401611000906121a2565b60405180910390fd5b61105684848080601f016020809104026020016040519081016040528093929190818152602001838380828437600081840152601f19601f8201169050808301925050505050505061149b565b611095576040517f08c379a000000000000000000000000000000000000000000000000000000000815260040161108c9061220e565b60405180910390fd5b6110e282828080601f016020809104026020016040519081016040528093929190818152602001838380828437600081840152601f19601f8201169050808301925050505050505061149b565b611121576040517f08c379a00000000000000000000000000000000000000000000000000000000081526004016111189061220e565b60405180910390fd5b60008484604051602001611136929190612253565b60405160208183030381529060405280519060200120905060006001600083815260200190815260200160002060008a600181111561117857611177611749565b5b8152602001908152602001600020905060005b8180549050811015611255573373ffffffffffffffffffffffffffffffffffffffff168282815481106111c1576111c0611db1565b5b9060005260206000200160009054906101000a900473ffffffffffffffffffffffffffffffffffffffff1673ffffffffffffffffffffffffffffffffffffffff1603611242576040517f08c379a0000000000000000000000000000000000000000000000000000000008152600401611239906122de565b60405180910390fd5b808061124d90611de0565b91505061118b565b506040518060a0016040528089898080601f016020809104026020016040519081016040528093929190818152602001838380828437600081840152601f19601f82011690508083019250505050505050815260200187878080601f016020809104026020016040519081016040528093929190818152602001838380828437600081840152601f19601f8201169050808301925050505050505081526020018a600181111561130857611307611749565b5b81526020018b815260200185858080601f016020809104026020016040519081016040528093929190818152602001838380828437600081840152601f19601f820116905080830192505050505050508152506000803373ffffffffffffffffffffffffffffffffffffffff1673ffffffffffffffffffffffffffffffffffffffff16815260200190815260200160002060008201518160000190805190602001906113b59291906114f0565b5060208201518160010190805190602001906113d29291906114f0565b5060408201518160020160006101000a81548160ff021916908360018111156113fe576113fd611749565b5b02179055506060820151816003015560808201518160040190805190602001906114299291906114f0565b5090505080339080600181540180825580915050600190039060005260206000200160009091909190916101000a81548173ffffffffffffffffffffffffffffffffffffffff021916908373ffffffffffffffffffffffffffffffffffffffff16021790555050505050505050505050565b600080829050600081511415915050919050565b6040518060a001604052806060815260200160608152602001600060018111156114dc576114db611749565b5b815260200160008152602001606081525090565b8280546114fc90611be2565b90600052602060002090601f01602090048101928261151e5760008555611565565b82601f1061153757805160ff1916838001178555611565565b82800160010185558215611565579182015b82811115611564578251825591602001919060010190611549565b5b5090506115729190611576565b5090565b5b8082111561158f576000816000905550600101611577565b5090565b600080fd5b600080fd5b600073ffffffffffffffffffffffffffffffffffffffff82169050919050565b60006115c88261159d565b9050919050565b6115d8816115bd565b81146115e357600080fd5b50565b6000813590506115f5816115cf565b92915050565b6000819050919050565b61160e816115fb565b811461161957600080fd5b50565b60008135905061162b81611605565b92915050565b60008060006060848603121561164a57611649611593565b5b6000611658868287016115e6565b93505060206116698682870161161c565b925050604061167a8682870161161c565b9150509250925092565b600081519050919050565b600082825260208201905092915050565b6000819050602082019050919050565b600081519050919050565b600082825260208201905092915050565b60005b838110156116ea5780820151818401526020810190506116cf565b838111156116f9576000848401525b50505050565b6000601f19601f8301169050919050565b600061171b826116b0565b61172581856116bb565b93506117358185602086016116cc565b61173e816116ff565b840191505092915050565b7f4e487b7100000000000000000000000000000000000000000000000000000000600052602160045260246000fd5b6002811061178957611788611749565b5b50565b600081905061179a82611778565b919050565b60006117aa8261178c565b9050919050565b6117ba8161179f565b82525050565b6117c9816115fb565b82525050565b600060a08301600083015184820360008601526117ec8282611710565b915050602083015184820360208601526118068282611710565b915050604083015161181b60408601826117b1565b50606083015161182e60608601826117c0565b50608083015184820360808601526118468282611710565b9150508091505092915050565b600061185f83836117cf565b905092915050565b6000602082019050919050565b600061187f82611684565b611889818561168f565b93508360208202850161189b856116a0565b8060005b858110156118d757848403895281516118b88582611853565b94506118c383611867565b925060208a0199505060018101905061189f565b50829750879550505050505092915050565b600060208201905081810360008301526119038184611874565b905092915050565b6003811061191857600080fd5b50565b60008135905061192a8161190b565b92915050565b6000806040838503121561194757611946611593565b5b6000611955858286016115e6565b92505060206119668582860161191b565b9150509250929050565b600080fd5b600080fd5b600080fd5b60008083601f84011261199557611994611970565b5b8235905067ffffffffffffffff8111156119b2576119b1611975565b5b6020830191508360018202830111156119ce576119cd61197a565b5b9250929050565b6000806000604084860312156119ee576119ed611593565b5b60006119fc868287016115e6565b935050602084013567ffffffffffffffff811115611a1d57611a1c611598565b5b611a298682870161197f565b92509250509250925092565b60028110611a4257600080fd5b50565b600081359050611a5481611a35565b92915050565b60008060008060008060008060a0898b031215611a7a57611a79611593565b5b6000611a888b828c0161161c565b9850506020611a998b828c01611a45565b975050604089013567ffffffffffffffff811115611aba57611ab9611598565b5b611ac68b828c0161197f565b9650965050606089013567ffffffffffffffff811115611ae957611ae8611598565b5b611af58b828c0161197f565b9450945050608089013567ffffffffffffffff811115611b1857611b17611598565b5b611b248b828c0161197f565b92509250509295985092959890939650565b600082825260208201905092915050565b7f6e6f207573657273206578697374000000000000000000000000000000000000600082015250565b6000611b7d600e83611b36565b9150611b8882611b47565b602082019050919050565b60006020820190508181036000830152611bac81611b70565b9050919050565b7f4e487b7100000000000000000000000000000000000000000000000000000000600052602260045260246000fd5b60006002820490506001821680611bfa57607f821691505b602082108103611c0d57611c0c611bb3565b5b50919050565b600081905092915050565b60008190508160005260206000209050919050565b60008154611c4081611be2565b611c4a8186611c13565b94506001821660008114611c655760018114611c7657611ca9565b60ff19831686528186019350611ca9565b611c7f85611c1e565b60005b83811015611ca157815481890152600182019150602081019050611c82565b838801955050505b50505092915050565b6000611cbe8284611c33565b915081905092915050565b7f4e487b7100000000000000000000000000000000000000000000000000000000600052601160045260246000fd5b6000611d03826115fb565b9150611d0e836115fb565b9250827fffffffffffffffffffffffffffffffffffffffffffffffffffffffffffffffff03821115611d4357611d42611cc9565b5b828201905092915050565b6000611d59826115fb565b9150611d64836115fb565b925082821015611d7757611d76611cc9565b5b828203905092915050565b7f4e487b7100000000000000000000000000000000000000000000000000000000600052604160045260246000fd5b7f4e487b7100000000000000000000000000000000000000000000000000000000600052603260045260246000fd5b6000611deb826115fb565b91507fffffffffffffffffffffffffffffffffffffffffffffffffffffffffffffffff8203611e1d57611e1c611cc9565b5b600182019050919050565b7f796f752063616e6e6f74207377697065206120706572736f6e20747769636500600082015250565b6000611e5e601f83611b36565b9150611e6982611e28565b602082019050919050565b60006020820190508181036000830152611e8d81611e51565b9050919050565b7f4461696c79207377697065206c696d6974732072656163686564000000000000600082015250565b6000611eca601a83611b36565b9150611ed582611e94565b602082019050919050565b60006020820190508181036000830152611ef981611ebd565b9050919050565b6000611f0b826115fb565b915060008203611f1e57611f1d611cc9565b5b600182039050919050565b60038110611f3a57611f39611749565b5b50565b6000819050611f4b82611f29565b919050565b6000611f5b82611f3d565b9050919050565b611f6b81611f50565b82525050565b6000602082019050611f866000830184611f62565b92915050565b7f4d6573736167696e6720616c6c6f776564206f6e6c79206265747765656e206d60008201527f757475616c206d61746368657300000000000000000000000000000000000000602082015250565b6000611fe8602d83611b36565b9150611ff382611f8c565b604082019050919050565b6000602082019050818103600083015261201781611fdb565b9050919050565b82818337600083830152505050565b60006120398385611b36565b935061204683858461201e565b61204f836116ff565b840190509392505050565b6000602082019050818103600083015261207581848661202d565b90509392505050565b7f616c726561647920657869737473000000000000000000000000000000000000600082015250565b60006120b4600e83611b36565b91506120bf8261207e565b602082019050919050565b600060208201905081810360008301526120e3816120a7565b9050919050565b7f796f75206d757374206174207468652061676500000000000000000000000000600082015250565b6000612120601383611b36565b915061212b826120ea565b602082019050919050565b6000602082019050818103600083015261214f81612113565b9050919050565b7f6e616d6520697320656d70747900000000000000000000000000000000000000600082015250565b600061218c600d83611b36565b915061219782612156565b602082019050919050565b600060208201905081810360008301526121bb8161217f565b9050919050565b7f6369747920697320656d70747900000000000000000000000000000000000000600082015250565b60006121f8600d83611b36565b9150612203826121c2565b602082019050919050565b60006020820190508181036000830152612227816121eb565b9050919050565b600061223a8385611c13565b935061224783858461201e565b82840190509392505050565b600061226082848661222e565b91508190509392505050565b7f5573657220616c7265616479207265676973746572656420696e20746869732060008201527f6369747900000000000000000000000000000000000000000000000000000000602082015250565b60006122c8602483611b36565b91506122d38261226c565b604082019050919050565b600060208201905081810360008301526122f7816122bb565b905091905056fea2646970667358221220954c8c2cd03d8e65370fc4361fbcc1f4314478b70ff152dfc94237bdf5e62f3864736f6c634300080d0033",
  "immutableReferences": {},
  "source": "// SPDX-License-Identifier: MIT\npragma solidity >0.8.0;\n\n// 1. Register the user\n// 2. Matching: swipe righ/left\n// 3. Messaging: send messages to matches\n\ncontract Tinder {\n    struct Users {\n        string name;\n        string city;\n        Gender gender;\n        uint age;\n        string picUrl;\n    }\n    struct SwipeCount {\n        uint start;\n        uint count;\n    }\n    enum Gender {\n        MALE,\n        FEMALE\n    }\n    enum SwipeStatus {\n        UNKNOWN,\n        LIKE,\n        DISLIKE\n    }\n\n    mapping(address => Users) private users;\n    mapping(bytes32 => mapping(uint => address[])) private userIdsbyCity;\n    mapping(address => mapping(address => SwipeStatus)) private swipes;\n    mapping(address => SwipeCount) private swipesCount;\n\n    event Swiped(address indexed from, address indexed to, SwipeStatus status);\n    event Matched(address indexed from, address indexed to);\n    event sendMessage(address indexed from, address indexed to, string content);\n\n    function register(\n        uint _age,\n        Gender _gender,\n        string calldata _name,\n        string calldata _city,\n        string calldata _picUrl\n    ) external {\n        require(users[msg.sender].age == 0, \"already exists\");\n        require(_age > 17, \"you must at the age\");\n        require(notEmptyString(_name), \"name is empty\");\n        require(notEmptyString(_city), \"city is empty\");\n        require(notEmptyString(_picUrl), \"city is empty\");\n\n        bytes32 _hashCity = keccak256(abi.encodePacked(_city));\n        address[] storage cityUsers = userIdsbyCity[_hashCity][uint(_gender)];\n        for (uint i = 0; i < cityUsers.length; i++) {\n            require(\n                cityUsers[i] != msg.sender,\n                \"User already registered in this city\"\n            );\n        }\n        users[msg.sender] = Users(_name, _city, _gender, _age, _picUrl);\n        cityUsers.push(msg.sender);\n    }\n\n    function getMatchableUsers(\n        address _userId,\n        uint offset,\n        uint limit\n    )\n        external\n        view\n        userExists(_userId)\n        userExists(msg.sender)\n        returns (Users[] memory)\n    {\n        Users storage user = users[_userId];\n        uint oppositeGender = user.gender == Gender.MALE ? 0 : 1;\n        bytes32 _hashCity = keccak256(abi.encodePacked(user.city));\n        address[] storage userIds = userIdsbyCity[_hashCity][oppositeGender];\n\n        uint matchableUserCount;\n        uint startIndex = offset;\n        uint endIndex = offset + limit > userIds.length\n            ? userIds.length\n            : offset + limit;\n\n        Users[] memory _users = new Users[](endIndex - startIndex);\n\n        for (uint i = startIndex; i < endIndex; i++) {\n            address userId = userIds[i];\n            if (swipes[msg.sender][userId] == SwipeStatus.UNKNOWN) {\n                _users[matchableUserCount] = users[userId];\n                matchableUserCount++;\n            }\n        }\n\n        return _users;\n    }\n\n    function swipe(\n        address _userId,\n        SwipeStatus _status\n    ) external userExists(_userId) userExists(msg.sender) {\n        require(\n            swipes[msg.sender][_userId] == SwipeStatus.UNKNOWN,\n            \"you cannot swipe a person twice\"\n        );\n        swipes[msg.sender][_userId] = _status;\n\n        if (\n            _status == SwipeStatus.LIKE &&\n            swipes[_userId][msg.sender] == SwipeStatus.LIKE\n        ) {\n            emit Matched(msg.sender, _userId);\n        }\n        SwipeCount storage _swipesCount = swipesCount[msg.sender];\n\n        if (block.timestamp > _swipesCount.start + 1 days) {\n            _swipesCount.start = block.timestamp;\n            _swipesCount.count = 100;\n        }\n        require(_swipesCount.count > 0, \"Daily swipe limits reached\");\n        _swipesCount.count--;\n\n        emit Swiped(msg.sender, _userId, _status);\n    }\n\n    function message(\n        address _userId,\n        string calldata _content\n    ) external userExists(_userId) {\n        require(\n            swipes[msg.sender][_userId] == SwipeStatus.LIKE &&\n                swipes[_userId][msg.sender] == SwipeStatus.LIKE,\n            \"Messaging allowed only between mutual matches\"\n        );\n        emit sendMessage(msg.sender, _userId, _content);\n    }\n\n    function notEmptyString(string memory _str) internal pure returns (bool) {\n        bytes memory str = bytes(_str);\n        return str.length != 0;\n    }\n\n    modifier userExists(address _userId) {\n        require(users[_userId].age > 0, \"no users exist\");\n        _;\n    }\n}\n",
  "sourcePath": "E:\\Coding\\Web3\\Web3 master\\Tinder\\app\\contracts\\TinderTest.sol",
  "compiler": {
    "name": "solc",
    "version": "0.8.13+commit.abaa5c0e.Emscripten.clang"
  },
  "schemaVersion": "3.4.16",
  "updatedAt": "2025-01-21T21:58:22.080Z",
  "networkType": "ethereum",
  "devdoc": {
    "kind": "dev",
    "methods": {},
    "version": 1
  },
  "userdoc": {
    "kind": "user",
    "methods": {},
    "version": 1
  }
}