{
  "contractName": "Tinder",
  "abi": [
    {
      "anonymous": false,
      "inputs": [
        {
          "indexed": true,
          "internalType": "address",
          "name": "from",
          "type": "address"
        },
        {
          "indexed": true,
          "internalType": "address",
          "name": "to",
          "type": "address"
        }
      ],
      "name": "Matched",
      "type": "event"
    },
    {
      "anonymous": false,
      "inputs": [
        {
          "indexed": true,
          "internalType": "address",
          "name": "from",
          "type": "address"
        },
        {
          "indexed": true,
          "internalType": "address",
          "name": "to",
          "type": "address"
        },
        {
          "indexed": false,
          "internalType": "enum Tinder.SwipeStatus",
          "name": "status",
          "type": "uint8"
        }
      ],
      "name": "Swiped",
      "type": "event"
    },
    {
      "anonymous": false,
      "inputs": [
        {
          "indexed": true,
          "internalType": "address",
          "name": "from",
          "type": "address"
        },
        {
          "indexed": true,
          "internalType": "address",
          "name": "to",
          "type": "address"
        },
        {
          "indexed": false,
          "internalType": "string",
          "name": "content",
          "type": "string"
        }
      ],
      "name": "sendMessage",
      "type": "event"
    },
    {
      "inputs": [
        {
          "internalType": "uint256",
          "name": "_age",
          "type": "uint256"
        },
        {
          "internalType": "enum Tinder.Gender",
          "name": "_gender",
          "type": "uint8"
        },
        {
          "internalType": "string",
          "name": "_name",
          "type": "string"
        },
        {
          "internalType": "string",
          "name": "_city",
          "type": "string"
        },
        {
          "internalType": "string",
          "name": "_picUrl",
          "type": "string"
        }
      ],
      "name": "register",
      "outputs": [],
      "stateMutability": "nonpayable",
      "type": "function"
    },
    {
      "inputs": [
        {
          "internalType": "address",
          "name": "_userId",
          "type": "address"
        },
        {
          "internalType": "uint256",
          "name": "offset",
          "type": "uint256"
        },
        {
          "internalType": "uint256",
          "name": "limit",
          "type": "uint256"
        }
      ],
      "name": "getMatchableUsers",
      "outputs": [
        {
          "components": [
            {
              "internalType": "string",
              "name": "name",
              "type": "string"
            },
            {
              "internalType": "string",
              "name": "city",
              "type": "string"
            },
            {
              "internalType": "enum Tinder.Gender",
              "name": "gender",
              "type": "uint8"
            },
            {
              "internalType": "uint256",
              "name": "age",
              "type": "uint256"
            },
            {
              "internalType": "string",
              "name": "picUrl",
              "type": "string"
            }
          ],
          "internalType": "struct Tinder.Users[]",
          "name": "",
          "type": "tuple[]"
        }
      ],
      "stateMutability": "view",
      "type": "function",
      "constant": true
    },
    {
      "inputs": [
        {
          "internalType": "address",
          "name": "_userId",
          "type": "address"
        },
        {
          "internalType": "enum Tinder.SwipeStatus",
          "name": "_status",
          "type": "uint8"
        }
      ],
      "name": "swipe",
      "outputs": [],
      "stateMutability": "nonpayable",
      "type": "function"
    },
    {
      "inputs": [
        {
          "internalType": "address",
          "name": "_userId",
          "type": "address"
        },
        {
          "internalType": "string",
          "name": "_content",
          "type": "string"
        }
      ],
      "name": "message",
      "outputs": [],
      "stateMutability": "nonpayable",
      "type": "function"
    },
    {
      "inputs": [
        {
          "internalType": "address",
          "name": "_user",
          "type": "address"
        }
      ],
      "name": "getUser",
      "outputs": [
        {
          "components": [
            {
              "internalType": "string",
              "name": "name",
              "type": "string"
            },
            {
              "internalType": "string",
              "name": "city",
              "type": "string"
            },
            {
              "internalType": "enum Tinder.Gender",
              "name": "gender",
              "type": "uint8"
            },
            {
              "internalType": "uint256",
              "name": "age",
              "type": "uint256"
            },
            {
              "internalType": "string",
              "name": "picUrl",
              "type": "string"
            }
          ],
          "internalType": "struct Tinder.Users",
          "name": "",
          "type": "tuple"
        }
      ],
      "stateMutability": "view",
      "type": "function",
      "constant": true
    },
    {
      "inputs": [
        {
          "internalType": "address",
          "name": "_from",
          "type": "address"
        },
        {
          "internalType": "address",
          "name": "_to",
          "type": "address"
        }
      ],
      "name": "getSwipeStatus",
      "outputs": [
        {
          "internalType": "enum Tinder.SwipeStatus",
          "name": "",
          "type": "uint8"
        }
      ],
      "stateMutability": "view",
      "type": "function",
      "constant": true
    }
  ],
  "bytecode": "0x608060405234801561001057600080fd5b50612894806100206000396000f3fe608060405234801561001057600080fd5b50600436106100615760003560e01c8062d99932146100665780631e9b25b4146100965780633e03c4d0146100c65780634fac1bb3146100e25780636f77926b146100fe5780639ef53d131461012e575b600080fd5b610080600480360381019061007b9190611a12565b61014a565b60405161008d9190611cca565b60405180910390f35b6100b060048036038101906100ab9190611cec565b610774565b6040516100bd9190611d74565b60405180910390f35b6100e060048036038101906100db9190611db4565b610808565b005b6100fc60048036038101906100f79190611e59565b610d25565b005b61011860048036038101906101139190611eb9565b610fc0565b6040516101259190611f6a565b60405180910390f35b61014860048036038101906101439190611fb1565b611297565b005b60608360008060008373ffffffffffffffffffffffffffffffffffffffff1673ffffffffffffffffffffffffffffffffffffffff16815260200190815260200160002060030154116101d1576040517f08c379a00000000000000000000000000000000000000000000000000000000081526004016101c8906120ea565b60405180910390fd5b3360008060008373ffffffffffffffffffffffffffffffffffffffff1673ffffffffffffffffffffffffffffffffffffffff1681526020019081526020016000206003015411610256576040517f08c379a000000000000000000000000000000000000000000000000000000000815260040161024d906120ea565b60405180910390fd5b60008060008873ffffffffffffffffffffffffffffffffffffffff1673ffffffffffffffffffffffffffffffffffffffff168152602001908152602001600020905060006001808111156102ad576102ac611b2a565b5b8260020160009054906101000a900460ff1660018111156102d1576102d0611b2a565b5b146102dd5760016102e0565b60005b60ff1690506000826001016040516020016102fb9190612209565b604051602081830303815290604052805190602001209050600060016000838152602001908152602001600020600084815260200190815260200160002090506000808a9050600083805490508b8d610354919061224f565b1161036a578a8c610365919061224f565b610370565b83805490505b90506000828261038091906122a5565b67ffffffffffffffff811115610399576103986122d9565b5b6040519080825280602002602001820160405280156103d257816020015b6103bf611890565b8152602001906001900390816103b75790505b50905060008390505b8281101561075f5760008682815481106103f8576103f7612308565b5b9060005260206000200160009054906101000a900473ffffffffffffffffffffffffffffffffffffffff1690506000600281111561043957610438611b2a565b5b600260003373ffffffffffffffffffffffffffffffffffffffff1673ffffffffffffffffffffffffffffffffffffffff16815260200190815260200160002060008373ffffffffffffffffffffffffffffffffffffffff1673ffffffffffffffffffffffffffffffffffffffff16815260200190815260200160002060009054906101000a900460ff1660028111156104d5576104d4611b2a565b5b0361074b576000808273ffffffffffffffffffffffffffffffffffffffff1673ffffffffffffffffffffffffffffffffffffffff1681526020019081526020016000206040518060a001604052908160008201805461053390612139565b80601f016020809104026020016040519081016040528092919081815260200182805461055f90612139565b80156105ac5780601f10610581576101008083540402835291602001916105ac565b820191906000526020600020905b81548152906001019060200180831161058f57829003601f168201915b505050505081526020016001820180546105c590612139565b80601f01602080910402602001604051908101604052809291908181526020018280546105f190612139565b801561063e5780601f106106135761010080835404028352916020019161063e565b820191906000526020600020905b81548152906001019060200180831161062157829003601f168201915b505050505081526020016002820160009054906101000a900460ff16600181111561066c5761066b611b2a565b5b600181111561067e5761067d611b2a565b5b81526020016003820154815260200160048201805461069c90612139565b80601f01602080910402602001604051908101604052809291908181526020018280546106c890612139565b80156107155780601f106106ea57610100808354040283529160200191610715565b820191906000526020600020905b8154815290600101906020018083116106f857829003601f168201915b50505050508152505083878151811061073157610730612308565b5b6020026020010181905250858061074790612337565b9650505b50808061075790612337565b9150506103db565b50809a50505050505050505050509392505050565b6000600260008473ffffffffffffffffffffffffffffffffffffffff1673ffffffffffffffffffffffffffffffffffffffff16815260200190815260200160002060008373ffffffffffffffffffffffffffffffffffffffff1673ffffffffffffffffffffffffffffffffffffffff16815260200190815260200160002060009054906101000a900460ff16905092915050565b8160008060008373ffffffffffffffffffffffffffffffffffffffff1673ffffffffffffffffffffffffffffffffffffffff168152602001908152602001600020600301541161088d576040517f08c379a0000000000000000000000000000000000000000000000000000000008152600401610884906120ea565b60405180910390fd5b3360008060008373ffffffffffffffffffffffffffffffffffffffff1673ffffffffffffffffffffffffffffffffffffffff1681526020019081526020016000206003015411610912576040517f08c379a0000000000000000000000000000000000000000000000000000000008152600401610909906120ea565b60405180910390fd5b6000600281111561092657610925611b2a565b5b600260003373ffffffffffffffffffffffffffffffffffffffff1673ffffffffffffffffffffffffffffffffffffffff16815260200190815260200160002060008673ffffffffffffffffffffffffffffffffffffffff1673ffffffffffffffffffffffffffffffffffffffff16815260200190815260200160002060009054906101000a900460ff1660028111156109c2576109c1611b2a565b5b14610a02576040517f08c379a00000000000000000000000000000000000000000000000000000000081526004016109f9906123cb565b60405180910390fd5b82600260003373ffffffffffffffffffffffffffffffffffffffff1673ffffffffffffffffffffffffffffffffffffffff16815260200190815260200160002060008673ffffffffffffffffffffffffffffffffffffffff1673ffffffffffffffffffffffffffffffffffffffff16815260200190815260200160002060006101000a81548160ff02191690836002811115610aa157610aa0611b2a565b5b021790555060016002811115610aba57610ab9611b2a565b5b836002811115610acd57610acc611b2a565b5b148015610b87575060016002811115610ae957610ae8611b2a565b5b600260008673ffffffffffffffffffffffffffffffffffffffff1673ffffffffffffffffffffffffffffffffffffffff16815260200190815260200160002060003373ffffffffffffffffffffffffffffffffffffffff1673ffffffffffffffffffffffffffffffffffffffff16815260200190815260200160002060009054906101000a900460ff166002811115610b8557610b84611b2a565b5b145b15610be7578373ffffffffffffffffffffffffffffffffffffffff163373ffffffffffffffffffffffffffffffffffffffff167fd14ed81663bee87b643b51c1f63fc86cb3b2bba9cc237cf6db5c3d5967a2695260405160405180910390a35b6000600360003373ffffffffffffffffffffffffffffffffffffffff1673ffffffffffffffffffffffffffffffffffffffff1681526020019081526020016000209050620151808160000154610c3d919061224f565b421115610c5857428160000181905550606481600101819055505b6000816001015411610c9f576040517f08c379a0000000000000000000000000000000000000000000000000000000008152600401610c9690612437565b60405180910390fd5b806001016000815480929190610cb490612457565b91905055508473ffffffffffffffffffffffffffffffffffffffff163373ffffffffffffffffffffffffffffffffffffffff167fe73e20c5441ba268ed326947e6ba00960753d9f4e0a9ce842a3b20fdae77ac5c86604051610d169190611d74565b60405180910390a35050505050565b8260008060008373ffffffffffffffffffffffffffffffffffffffff1673ffffffffffffffffffffffffffffffffffffffff1681526020019081526020016000206003015411610daa576040517f08c379a0000000000000000000000000000000000000000000000000000000008152600401610da1906120ea565b60405180910390fd5b60016002811115610dbe57610dbd611b2a565b5b600260003373ffffffffffffffffffffffffffffffffffffffff1673ffffffffffffffffffffffffffffffffffffffff16815260200190815260200160002060008673ffffffffffffffffffffffffffffffffffffffff1673ffffffffffffffffffffffffffffffffffffffff16815260200190815260200160002060009054906101000a900460ff166002811115610e5a57610e59611b2a565b5b148015610f14575060016002811115610e7657610e75611b2a565b5b600260008673ffffffffffffffffffffffffffffffffffffffff1673ffffffffffffffffffffffffffffffffffffffff16815260200190815260200160002060003373ffffffffffffffffffffffffffffffffffffffff1673ffffffffffffffffffffffffffffffffffffffff16815260200190815260200160002060009054906101000a900460ff166002811115610f1257610f11611b2a565b5b145b610f53576040517f08c379a0000000000000000000000000000000000000000000000000000000008152600401610f4a906124f2565b60405180910390fd5b8373ffffffffffffffffffffffffffffffffffffffff163373ffffffffffffffffffffffffffffffffffffffff167fb88e318daf2d42713ce210b419bffdea4fff4079acc81d58aed9de9e170dc1f28585604051610fb292919061254e565b60405180910390a350505050565b610fc8611890565b60008060008473ffffffffffffffffffffffffffffffffffffffff1673ffffffffffffffffffffffffffffffffffffffff168152602001908152602001600020600301541161104c576040517f08c379a0000000000000000000000000000000000000000000000000000000008152600401611043906125be565b60405180910390fd5b6000808373ffffffffffffffffffffffffffffffffffffffff1673ffffffffffffffffffffffffffffffffffffffff1681526020019081526020016000206040518060a00160405290816000820180546110a590612139565b80601f01602080910402602001604051908101604052809291908181526020018280546110d190612139565b801561111e5780601f106110f35761010080835404028352916020019161111e565b820191906000526020600020905b81548152906001019060200180831161110157829003601f168201915b5050505050815260200160018201805461113790612139565b80601f016020809104026020016040519081016040528092919081815260200182805461116390612139565b80156111b05780601f10611185576101008083540402835291602001916111b0565b820191906000526020600020905b81548152906001019060200180831161119357829003601f168201915b505050505081526020016002820160009054906101000a900460ff1660018111156111de576111dd611b2a565b5b60018111156111f0576111ef611b2a565b5b81526020016003820154815260200160048201805461120e90612139565b80601f016020809104026020016040519081016040528092919081815260200182805461123a90612139565b80156112875780601f1061125c57610100808354040283529160200191611287565b820191906000526020600020905b81548152906001019060200180831161126a57829003601f168201915b5050505050815250509050919050565b60008060003373ffffffffffffffffffffffffffffffffffffffff1673ffffffffffffffffffffffffffffffffffffffff168152602001908152602001600020600301541461131b576040517f08c379a00000000000000000000000000000000000000000000000000000000081526004016113129061262a565b60405180910390fd5b6011881161135e576040517f08c379a000000000000000000000000000000000000000000000000000000000815260040161135590612696565b60405180910390fd5b6113ab86868080601f016020809104026020016040519081016040528093929190818152602001838380828437600081840152601f19601f8201169050808301925050505050505061187c565b6113ea576040517f08c379a00000000000000000000000000000000000000000000000000000000081526004016113e190612702565b60405180910390fd5b61143784848080601f016020809104026020016040519081016040528093929190818152602001838380828437600081840152601f19601f8201169050808301925050505050505061187c565b611476576040517f08c379a000000000000000000000000000000000000000000000000000000000815260040161146d9061276e565b60405180910390fd5b6114c382828080601f016020809104026020016040519081016040528093929190818152602001838380828437600081840152601f19601f8201169050808301925050505050505061187c565b611502576040517f08c379a00000000000000000000000000000000000000000000000000000000081526004016114f99061276e565b60405180910390fd5b600084846040516020016115179291906127b3565b60405160208183030381529060405280519060200120905060006001600083815260200190815260200160002060008a600181111561155957611558611b2a565b5b8152602001908152602001600020905060005b8180549050811015611636573373ffffffffffffffffffffffffffffffffffffffff168282815481106115a2576115a1612308565b5b9060005260206000200160009054906101000a900473ffffffffffffffffffffffffffffffffffffffff1673ffffffffffffffffffffffffffffffffffffffff1603611623576040517f08c379a000000000000000000000000000000000000000000000000000000000815260040161161a9061283e565b60405180910390fd5b808061162e90612337565b91505061156c565b506040518060a0016040528089898080601f016020809104026020016040519081016040528093929190818152602001838380828437600081840152601f19601f82011690508083019250505050505050815260200187878080601f016020809104026020016040519081016040528093929190818152602001838380828437600081840152601f19601f8201169050808301925050505050505081526020018a60018111156116e9576116e8611b2a565b5b81526020018b815260200185858080601f016020809104026020016040519081016040528093929190818152602001838380828437600081840152601f19601f820116905080830192505050505050508152506000803373ffffffffffffffffffffffffffffffffffffffff1673ffffffffffffffffffffffffffffffffffffffff16815260200190815260200160002060008201518160000190805190602001906117969291906118d1565b5060208201518160010190805190602001906117b39291906118d1565b5060408201518160020160006101000a81548160ff021916908360018111156117df576117de611b2a565b5b021790555060608201518160030155608082015181600401908051906020019061180a9291906118d1565b5090505080339080600181540180825580915050600190039060005260206000200160009091909190916101000a81548173ffffffffffffffffffffffffffffffffffffffff021916908373ffffffffffffffffffffffffffffffffffffffff16021790555050505050505050505050565b600080829050600081511415915050919050565b6040518060a001604052806060815260200160608152602001600060018111156118bd576118bc611b2a565b5b815260200160008152602001606081525090565b8280546118dd90612139565b90600052602060002090601f0160209004810192826118ff5760008555611946565b82601f1061191857805160ff1916838001178555611946565b82800160010185558215611946579182015b8281111561194557825182559160200191906001019061192a565b5b5090506119539190611957565b5090565b5b80821115611970576000816000905550600101611958565b5090565b600080fd5b600080fd5b600073ffffffffffffffffffffffffffffffffffffffff82169050919050565b60006119a98261197e565b9050919050565b6119b98161199e565b81146119c457600080fd5b50565b6000813590506119d6816119b0565b92915050565b6000819050919050565b6119ef816119dc565b81146119fa57600080fd5b50565b600081359050611a0c816119e6565b92915050565b600080600060608486031215611a2b57611a2a611974565b5b6000611a39868287016119c7565b9350506020611a4a868287016119fd565b9250506040611a5b868287016119fd565b9150509250925092565b600081519050919050565b600082825260208201905092915050565b6000819050602082019050919050565b600081519050919050565b600082825260208201905092915050565b60005b83811015611acb578082015181840152602081019050611ab0565b83811115611ada576000848401525b50505050565b6000601f19601f8301169050919050565b6000611afc82611a91565b611b068185611a9c565b9350611b16818560208601611aad565b611b1f81611ae0565b840191505092915050565b7f4e487b7100000000000000000000000000000000000000000000000000000000600052602160045260246000fd5b60028110611b6a57611b69611b2a565b5b50565b6000819050611b7b82611b59565b919050565b6000611b8b82611b6d565b9050919050565b611b9b81611b80565b82525050565b611baa816119dc565b82525050565b600060a0830160008301518482036000860152611bcd8282611af1565b91505060208301518482036020860152611be78282611af1565b9150506040830151611bfc6040860182611b92565b506060830151611c0f6060860182611ba1565b5060808301518482036080860152611c278282611af1565b9150508091505092915050565b6000611c408383611bb0565b905092915050565b6000602082019050919050565b6000611c6082611a65565b611c6a8185611a70565b935083602082028501611c7c85611a81565b8060005b85811015611cb85784840389528151611c998582611c34565b9450611ca483611c48565b925060208a01995050600181019050611c80565b50829750879550505050505092915050565b60006020820190508181036000830152611ce48184611c55565b905092915050565b60008060408385031215611d0357611d02611974565b5b6000611d11858286016119c7565b9250506020611d22858286016119c7565b9150509250929050565b60038110611d3d57611d3c611b2a565b5b50565b6000819050611d4e82611d2c565b919050565b6000611d5e82611d40565b9050919050565b611d6e81611d53565b82525050565b6000602082019050611d896000830184611d65565b92915050565b60038110611d9c57600080fd5b50565b600081359050611dae81611d8f565b92915050565b60008060408385031215611dcb57611dca611974565b5b6000611dd9858286016119c7565b9250506020611dea85828601611d9f565b9150509250929050565b600080fd5b600080fd5b600080fd5b60008083601f840112611e1957611e18611df4565b5b8235905067ffffffffffffffff811115611e3657611e35611df9565b5b602083019150836001820283011115611e5257611e51611dfe565b5b9250929050565b600080600060408486031215611e7257611e71611974565b5b6000611e80868287016119c7565b935050602084013567ffffffffffffffff811115611ea157611ea0611979565b5b611ead86828701611e03565b92509250509250925092565b600060208284031215611ecf57611ece611974565b5b6000611edd848285016119c7565b91505092915050565b600060a0830160008301518482036000860152611f038282611af1565b91505060208301518482036020860152611f1d8282611af1565b9150506040830151611f326040860182611b92565b506060830151611f456060860182611ba1565b5060808301518482036080860152611f5d8282611af1565b9150508091505092915050565b60006020820190508181036000830152611f848184611ee6565b905092915050565b60028110611f9957600080fd5b50565b600081359050611fab81611f8c565b92915050565b60008060008060008060008060a0898b031215611fd157611fd0611974565b5b6000611fdf8b828c016119fd565b9850506020611ff08b828c01611f9c565b975050604089013567ffffffffffffffff81111561201157612010611979565b5b61201d8b828c01611e03565b9650965050606089013567ffffffffffffffff8111156120405761203f611979565b5b61204c8b828c01611e03565b9450945050608089013567ffffffffffffffff81111561206f5761206e611979565b5b61207b8b828c01611e03565b92509250509295985092959890939650565b600082825260208201905092915050565b7f6e6f207573657273206578697374000000000000000000000000000000000000600082015250565b60006120d4600e8361208d565b91506120df8261209e565b602082019050919050565b60006020820190508181036000830152612103816120c7565b9050919050565b7f4e487b7100000000000000000000000000000000000000000000000000000000600052602260045260246000fd5b6000600282049050600182168061215157607f821691505b6020821081036121645761216361210a565b5b50919050565b600081905092915050565b60008190508160005260206000209050919050565b6000815461219781612139565b6121a1818661216a565b945060018216600081146121bc57600181146121cd57612200565b60ff19831686528186019350612200565b6121d685612175565b60005b838110156121f8578154818901526001820191506020810190506121d9565b838801955050505b50505092915050565b6000612215828461218a565b915081905092915050565b7f4e487b7100000000000000000000000000000000000000000000000000000000600052601160045260246000fd5b600061225a826119dc565b9150612265836119dc565b9250827fffffffffffffffffffffffffffffffffffffffffffffffffffffffffffffffff0382111561229a57612299612220565b5b828201905092915050565b60006122b0826119dc565b91506122bb836119dc565b9250828210156122ce576122cd612220565b5b828203905092915050565b7f4e487b7100000000000000000000000000000000000000000000000000000000600052604160045260246000fd5b7f4e487b7100000000000000000000000000000000000000000000000000000000600052603260045260246000fd5b6000612342826119dc565b91507fffffffffffffffffffffffffffffffffffffffffffffffffffffffffffffffff820361237457612373612220565b5b600182019050919050565b7f796f752063616e6e6f74207377697065206120706572736f6e20747769636500600082015250565b60006123b5601f8361208d565b91506123c08261237f565b602082019050919050565b600060208201905081810360008301526123e4816123a8565b9050919050565b7f4461696c79207377697065206c696d6974732072656163686564000000000000600082015250565b6000612421601a8361208d565b915061242c826123eb565b602082019050919050565b6000602082019050818103600083015261245081612414565b9050919050565b6000612462826119dc565b91506000820361247557612474612220565b5b600182039050919050565b7f4d6573736167696e6720616c6c6f776564206f6e6c79206265747765656e206d60008201527f757475616c206d61746368657300000000000000000000000000000000000000602082015250565b60006124dc602d8361208d565b91506124e782612480565b604082019050919050565b6000602082019050818103600083015261250b816124cf565b9050919050565b82818337600083830152505050565b600061252d838561208d565b935061253a838584612512565b61254383611ae0565b840190509392505050565b60006020820190508181036000830152612569818486612521565b90509392505050565b7f5573657220646f6573206e6f7420657869737400000000000000000000000000600082015250565b60006125a860138361208d565b91506125b382612572565b602082019050919050565b600060208201905081810360008301526125d78161259b565b9050919050565b7f616c726561647920657869737473000000000000000000000000000000000000600082015250565b6000612614600e8361208d565b915061261f826125de565b602082019050919050565b6000602082019050818103600083015261264381612607565b9050919050565b7f796f75206d757374206174207468652061676500000000000000000000000000600082015250565b600061268060138361208d565b915061268b8261264a565b602082019050919050565b600060208201905081810360008301526126af81612673565b9050919050565b7f6e616d6520697320656d70747900000000000000000000000000000000000000600082015250565b60006126ec600d8361208d565b91506126f7826126b6565b602082019050919050565b6000602082019050818103600083015261271b816126df565b9050919050565b7f6369747920697320656d70747900000000000000000000000000000000000000600082015250565b6000612758600d8361208d565b915061276382612722565b602082019050919050565b600060208201905081810360008301526127878161274b565b9050919050565b600061279a838561216a565b93506127a7838584612512565b82840190509392505050565b60006127c082848661278e565b91508190509392505050565b7f5573657220616c7265616479207265676973746572656420696e20746869732060008201527f6369747900000000000000000000000000000000000000000000000000000000602082015250565b600061282860248361208d565b9150612833826127cc565b604082019050919050565b600060208201905081810360008301526128578161281b565b905091905056fea26469706673582212200b6e86d31046343a05d48a0d0e0211839566ad796e08c32ff3ba3dd15a7fcce264736f6c634300080d0033",
  "immutableReferences": {},
  "source": "// SPDX-License-Identifier: MIT\npragma solidity >0.8.0;\n\n// 1. Register the user\n// 2. Matching: swipe righ/left\n// 3. Messaging: send messages to matches\n\ncontract Tinder {\n    struct Users {\n        string name;\n        string city;\n        Gender gender;\n        uint age;\n        string picUrl;\n    }\n    struct SwipeCount {\n        uint start;\n        uint count;\n    }\n    enum Gender {\n        FEMALE,\n        MALE\n    }\n    enum SwipeStatus {\n        UNKNOWN,\n        LIKE,\n        DISLIKE\n    }\n\n    /**\n        All of the mappings gathered here\n        * users to get the users and their identities\n        * userIdsByCity this has a address entry to add each users to their cities\n        * swipes that stored the address to those who...\n    */\n\n    mapping(address => Users) private users;\n    mapping(bytes32 => mapping(uint => address[])) private userIdsbyCity;\n    mapping(address => mapping(address => SwipeStatus)) private swipes;\n    mapping(address => SwipeCount) private swipesCount;\n\n    /**\n        All of these events are for tracking the swipes and then when they got match, finally\n        for sending messages.\n    */\n\n    event Swiped(address indexed from, address indexed to, SwipeStatus status);\n    event Matched(address indexed from, address indexed to);\n    event sendMessage(address indexed from, address indexed to, string content);\n\n    /**\n        @dev register can get some arguments to send it to the users mapping which\n        its entry is address.\n    */\n    function register(\n        uint _age,\n        Gender _gender,\n        string calldata _name,\n        string calldata _city,\n        string calldata _picUrl\n    ) external {\n        require(users[msg.sender].age == 0, \"already exists\");\n        require(_age > 17, \"you must at the age\");\n        require(notEmptyString(_name), \"name is empty\");\n        require(notEmptyString(_city), \"city is empty\");\n        require(notEmptyString(_picUrl), \"city is empty\");\n\n        bytes32 _hashCity = keccak256(abi.encodePacked(_city));\n        address[] storage cityUsers = userIdsbyCity[_hashCity][uint(_gender)];\n        for (uint i = 0; i < cityUsers.length; i++) {\n            require(\n                cityUsers[i] != msg.sender,\n                \"User already registered in this city\"\n            );\n        }\n        users[msg.sender] = Users(_name, _city, _gender, _age, _picUrl);\n        cityUsers.push(msg.sender);\n    }\n\n    /**\n\t    @dev this function is controling the matchableUsers then show them in a pagination page\n        which who they are male must be Gender to 0(femail) or etc.\n    */\n\n    function getMatchableUsers(\n        address _userId,\n        uint offset,\n        uint limit\n    )\n        external\n        view\n        userExists(_userId)\n        userExists(msg.sender)\n        returns (Users[] memory)\n    {\n        Users storage user = users[_userId];\n        uint oppositeGender = user.gender == Gender.MALE ? 0 : 1;\n        bytes32 _hashCity = keccak256(abi.encodePacked(user.city));\n        address[] storage userIds = userIdsbyCity[_hashCity][oppositeGender];\n\n        uint matchableUserCount;\n        uint startIndex = offset;\n        uint endIndex = offset + limit > userIds.length\n            ? userIds.length\n            : offset + limit;\n\n        Users[] memory _users = new Users[](endIndex - startIndex);\n\n        for (uint i = startIndex; i < endIndex; i++) {\n            address userId = userIds[i];\n            if (swipes[msg.sender][userId] == SwipeStatus.UNKNOWN) {\n                _users[matchableUserCount] = users[userId];\n                matchableUserCount++;\n            }\n        }\n\n        return _users;\n    }\n\n    /**\n\t    @dev swipe will get address of users and set them to their interests\n       \tif the _status was liked and the other users liked this one it will show\n       \tthe match users.\n    */\n\n    function swipe(\n        address _userId,\n        SwipeStatus _status\n    ) external userExists(_userId) userExists(msg.sender) {\n        require(\n            swipes[msg.sender][_userId] == SwipeStatus.UNKNOWN,\n            \"you cannot swipe a person twice\"\n        );\n        swipes[msg.sender][_userId] = _status;\n\n        if (\n            _status == SwipeStatus.LIKE &&\n            swipes[_userId][msg.sender] == SwipeStatus.LIKE\n        ) {\n            emit Matched(msg.sender, _userId);\n        }\n        SwipeCount storage _swipesCount = swipesCount[msg.sender];\n\n        if (block.timestamp > _swipesCount.start + 1 days) {\n            _swipesCount.start = block.timestamp;\n            _swipesCount.count = 100;\n        }\n        require(_swipesCount.count > 0, \"Daily swipe limits reached\");\n        _swipesCount.count--;\n\n        emit Swiped(msg.sender, _userId, _status);\n    }\n\n    /**\n\t@dev message only make an emit to send message from sender to receiver.\n    */\n\n    function message(\n        address _userId,\n        string calldata _content\n    ) external userExists(_userId) {\n        require(\n            swipes[msg.sender][_userId] == SwipeStatus.LIKE &&\n                swipes[_userId][msg.sender] == SwipeStatus.LIKE,\n            \"Messaging allowed only between mutual matches\"\n        );\n        emit sendMessage(msg.sender, _userId, _content);\n    }\n\n    /**\n\t@dev getUser tries to get user's address and make sure it is existed\n       \tthen return that.\n    */\n\n    function getUser(address _user) external view returns (Users memory) {\n        require(users[_user].age > 0, \"User does not exist\");\n        return users[_user];\n    }\n\n    /** \n\t@dev this function is tracking the users' status per swipe.\n    */\n\n    function getSwipeStatus(\n        address _from,\n        address _to\n    ) external view returns (SwipeStatus) {\n        return swipes[_from][_to];\n    }\n\n    /**\n\t@dev make sure the entries of the registeration is going to get\n       \tsome information.\n    */\n\n    function notEmptyString(string memory _str) internal pure returns (bool) {\n        bytes memory str = bytes(_str);\n        return str.length != 0;\n    }\n\n    /**\n\t@dev this will find out the ueser's existence.\n    */\n\n    modifier userExists(address _userId) {\n        require(users[_userId].age > 0, \"no users exist\");\n        _;\n    }\n}\n",
  "sourcePath": "E:\\Coding\\Web3\\Web3 master\\Tinder\\app\\contracts\\TinderTest.sol",
  "compiler": {
    "name": "solc",
    "version": "0.8.13+commit.abaa5c0e.Emscripten.clang"
  },
  "schemaVersion": "3.4.16",
  "updatedAt": "2025-01-22T08:02:02.564Z",
  "networkType": "ethereum",
  "devdoc": {
    "kind": "dev",
    "methods": {
      "getMatchableUsers(address,uint256,uint256)": {
        "details": "this function is controling the matchableUsers then show them in a pagination page which who they are male must be Gender to 0(femail) or etc."
      },
      "getSwipeStatus(address,address)": {
        "details": "this function is tracking the users' status per swipe."
      },
      "getUser(address)": {
        "details": "getUser tries to get user's address and make sure it is existed then return that."
      },
      "message(address,string)": {
        "details": "message only make an emit to send message from sender to receiver."
      },
      "register(uint256,uint8,string,string,string)": {
        "details": "register can get some arguments to send it to the users mapping which its entry is address."
      },
      "swipe(address,uint8)": {
        "details": "swipe will get address of users and set them to their interests if the _status was liked and the other users liked this one it will show the match users."
      }
    },
    "version": 1
  },
  "userdoc": {
    "events": {
      "Swiped(address,address,uint8)": {
        "notice": "All of these events are for tracking the swipes and then when they got match, finally for sending messages."
      }
    },
    "kind": "user",
    "methods": {},
    "version": 1
  }
}